{
  "_format": "hh-sol-artifact-1",
  "contractName": "ENSDeployer",
  "sourceName": "contracts/ENSDeployer.sol",
  "abi": [
    {
      "inputs": [],
      "stateMutability": "nonpayable",
      "type": "constructor"
    },
    {
      "inputs": [],
      "name": "ADDR_LABEL",
      "outputs": [
        {
          "internalType": "bytes32",
          "name": "",
          "type": "bytes32"
        }
      ],
      "stateMutability": "view",
      "type": "function"
    },
    {
      "inputs": [],
      "name": "RESOLVER_LABEL",
      "outputs": [
        {
          "internalType": "bytes32",
          "name": "",
          "type": "bytes32"
        }
      ],
      "stateMutability": "view",
      "type": "function"
    },
    {
      "inputs": [],
      "name": "REVERSE_REGISTRAR_LABEL",
      "outputs": [
        {
          "internalType": "bytes32",
          "name": "",
          "type": "bytes32"
        }
      ],
      "stateMutability": "view",
      "type": "function"
    },
    {
      "inputs": [],
      "name": "TLD_LABEL",
      "outputs": [
        {
          "internalType": "bytes32",
          "name": "",
          "type": "bytes32"
        }
      ],
      "stateMutability": "view",
      "type": "function"
    },
    {
      "inputs": [],
      "name": "ens",
      "outputs": [
        {
          "internalType": "contract ENSRegistry",
          "name": "",
          "type": "address"
        }
      ],
      "stateMutability": "view",
      "type": "function"
    },
    {
      "inputs": [],
      "name": "fifsRegistrar",
      "outputs": [
        {
          "internalType": "contract FIFSRegistrar",
          "name": "",
          "type": "address"
        }
      ],
      "stateMutability": "view",
      "type": "function"
    },
    {
      "inputs": [
        {
          "internalType": "bytes32",
          "name": "node",
          "type": "bytes32"
        },
        {
          "internalType": "bytes32",
          "name": "label",
          "type": "bytes32"
        }
      ],
      "name": "namehash",
      "outputs": [
        {
          "internalType": "bytes32",
          "name": "",
          "type": "bytes32"
        }
      ],
      "stateMutability": "pure",
      "type": "function"
    },
    {
      "inputs": [],
      "name": "publicResolver",
      "outputs": [
        {
          "internalType": "contract PublicResolver",
          "name": "",
          "type": "address"
        }
      ],
      "stateMutability": "view",
      "type": "function"
    },
    {
      "inputs": [],
      "name": "reverseRegistrar",
      "outputs": [
        {
          "internalType": "contract ReverseRegistrar",
          "name": "",
          "type": "address"
        }
      ],
      "stateMutability": "view",
      "type": "function"
    }
  ],
  "bytecode": "0x60806040523480156200001157600080fd5b5060405162000020906200085b565b604051809103906000f0801580156200003d573d6000803e3d6000fd5b506000806101000a81548173ffffffffffffffffffffffffffffffffffffffff021916908373ffffffffffffffffffffffffffffffffffffffff16021790555060008054906101000a900473ffffffffffffffffffffffffffffffffffffffff166000604051620000ae9062000869565b620000bb92919062000a0d565b604051809103906000f080158015620000d8573d6000803e3d6000fd5b50600360006101000a81548173ffffffffffffffffffffffffffffffffffffffff021916908373ffffffffffffffffffffffffffffffffffffffff1602179055506000620001506000801b7f329539a1d23af1810c48a07fe7fc66a3b34fbc8b37e9b3cdb97bb88ceab7e4bf6200082660201b60201c565b905060008054906101000a900473ffffffffffffffffffffffffffffffffffffffff1673ffffffffffffffffffffffffffffffffffffffff166306ab59236000801b7f329539a1d23af1810c48a07fe7fc66a3b34fbc8b37e9b3cdb97bb88ceab7e4bf306040518463ffffffff1660e01b8152600401620001d493929190620009a3565b602060405180830381600087803b158015620001ef57600080fd5b505af115801562000204573d6000803e3d6000fd5b505050506040513d601f19601f820116820180604052508101906200022a9190620008aa565b5060008054906101000a900473ffffffffffffffffffffffffffffffffffffffff1673ffffffffffffffffffffffffffffffffffffffff16631896f70a82600360009054906101000a900473ffffffffffffffffffffffffffffffffffffffff166040518363ffffffff1660e01b8152600401620002aa92919062000976565b600060405180830381600087803b158015620002c557600080fd5b505af1158015620002da573d6000803e3d6000fd5b50505050600360009054906101000a900473ffffffffffffffffffffffffffffffffffffffff1673ffffffffffffffffffffffffffffffffffffffff1663d5fa2b0082600360009054906101000a900473ffffffffffffffffffffffffffffffffffffffff166040518363ffffffff1660e01b81526004016200035f92919062000976565b600060405180830381600087803b1580156200037a57600080fd5b505af11580156200038f573d6000803e3d6000fd5b5050505060008054906101000a900473ffffffffffffffffffffffffffffffffffffffff16620003e96000801b7f4f5b812789fc606be1b3b16908db13fc7a9adf7ca72641f84d75b47069d3d7f06200082660201b60201c565b604051620003f79062000877565b62000404929190620009e0565b604051809103906000f08015801562000421573d6000803e3d6000fd5b50600160006101000a81548173ffffffffffffffffffffffffffffffffffffffff021916908373ffffffffffffffffffffffffffffffffffffffff16021790555060008054906101000a900473ffffffffffffffffffffffffffffffffffffffff1673ffffffffffffffffffffffffffffffffffffffff166306ab59236000801b7f4f5b812789fc606be1b3b16908db13fc7a9adf7ca72641f84d75b47069d3d7f0600160009054906101000a900473ffffffffffffffffffffffffffffffffffffffff166040518463ffffffff1660e01b81526004016200050693929190620009a3565b602060405180830381600087803b1580156200052157600080fd5b505af115801562000536573d6000803e3d6000fd5b505050506040513d601f19601f820116820180604052508101906200055c9190620008aa565b5060008054906101000a900473ffffffffffffffffffffffffffffffffffffffff16600360009054906101000a900473ffffffffffffffffffffffffffffffffffffffff16604051620005af9062000885565b620005bc92919062000a3a565b604051809103906000f080158015620005d9573d6000803e3d6000fd5b50600260006101000a81548173ffffffffffffffffffffffffffffffffffffffff021916908373ffffffffffffffffffffffffffffffffffffffff16021790555060008054906101000a900473ffffffffffffffffffffffffffffffffffffffff1673ffffffffffffffffffffffffffffffffffffffff166306ab59236000801b7fdec08c9dbbdd0890e300eb5062089b2d4b1c40e3673bbccb5423f7b37dcf9a9c306040518463ffffffff1660e01b81526004016200069c93929190620009a3565b602060405180830381600087803b158015620006b757600080fd5b505af1158015620006cc573d6000803e3d6000fd5b505050506040513d601f19601f82011682018060405250810190620006f29190620008aa565b5060008054906101000a900473ffffffffffffffffffffffffffffffffffffffff1673ffffffffffffffffffffffffffffffffffffffff166306ab5923620007646000801b7fdec08c9dbbdd0890e300eb5062089b2d4b1c40e3673bbccb5423f7b37dcf9a9c6200082660201b60201c565b7fe5e14487b78f85faa6e1808e89246cf57dd34831548ff2e6097380d98db2504a600260009054906101000a900473ffffffffffffffffffffffffffffffffffffffff166040518463ffffffff1660e01b8152600401620007c893929190620009a3565b602060405180830381600087803b158015620007e357600080fd5b505af1158015620007f8573d6000803e3d6000fd5b505050506040513d601f19601f820116820180604052508101906200081e9190620008aa565b505062000b41565b600082826040516020016200083d92919062000946565b60405160208183030381529060405280519060200120905092915050565b61129080620010d983390190565b614357806200236983390190565b6105fc80620066c083390190565b6121638062006cbc83390190565b600081519050620008a48162000b27565b92915050565b600060208284031215620008bd57600080fd5b6000620008cd8482850162000893565b91505092915050565b620008e18162000a67565b82525050565b620008f28162000a7b565b82525050565b6200090d620009078262000a7b565b62000b1d565b82525050565b6200091e8162000aa5565b82525050565b6200092f8162000acd565b82525050565b620009408162000af5565b82525050565b6000620009548285620008f8565b602082019150620009668284620008f8565b6020820191508190509392505050565b60006040820190506200098d6000830185620008e7565b6200099c6020830184620008d6565b9392505050565b6000606082019050620009ba6000830186620008e7565b620009c96020830185620008e7565b620009d86040830184620008d6565b949350505050565b6000604082019050620009f7600083018562000913565b62000a066020830184620008e7565b9392505050565b600060408201905062000a24600083018562000913565b62000a33602083018462000924565b9392505050565b600060408201905062000a51600083018562000913565b62000a60602083018462000935565b9392505050565b600062000a748262000a85565b9050919050565b6000819050919050565b600073ffffffffffffffffffffffffffffffffffffffff82169050919050565b600062000ab28262000ab9565b9050919050565b600062000ac68262000a85565b9050919050565b600062000ada8262000ae1565b9050919050565b600062000aee8262000a85565b9050919050565b600062000b028262000b09565b9050919050565b600062000b168262000a85565b9050919050565b6000819050919050565b62000b328162000a7b565b811462000b3e57600080fd5b50565b6105888062000b516000396000f3fe608060405234801561001057600080fd5b50600436106100935760003560e01c8063808698531161006657806380869853146101225780639368678f14610140578063d1131c721461015e578063f82561211461017c578063fd3fa1811461019a57610093565b80631d9273c7146100985780633f15457f146100c85780635ecb2502146100e65780637d70c65914610104575b600080fd5b6100b260048036038101906100ad9190610326565b6101b8565b6040516100bf91906103f0565b60405180910390f35b6100d06101eb565b6040516100dd919061040b565b60405180910390f35b6100ee61020f565b6040516100fb91906103f0565b60405180910390f35b61010c610233565b60405161011991906103f0565b60405180910390f35b61012a610257565b604051610137919061045c565b60405180910390f35b61014861027d565b60405161015591906103f0565b60405180910390f35b6101666102a1565b60405161017391906103f0565b60405180910390f35b6101846102c5565b6040516101919190610441565b60405180910390f35b6101a26102eb565b6040516101af9190610426565b60405180910390f35b600082826040516020016101cd9291906103c4565b60405160208183030381529060405280519060200120905092915050565b60008054906101000a900473ffffffffffffffffffffffffffffffffffffffff1681565b7f329539a1d23af1810c48a07fe7fc66a3b34fbc8b37e9b3cdb97bb88ceab7e4bf81565b7fdec08c9dbbdd0890e300eb5062089b2d4b1c40e3673bbccb5423f7b37dcf9a9c81565b600260009054906101000a900473ffffffffffffffffffffffffffffffffffffffff1681565b7fe5e14487b78f85faa6e1808e89246cf57dd34831548ff2e6097380d98db2504a81565b7f4f5b812789fc606be1b3b16908db13fc7a9adf7ca72641f84d75b47069d3d7f081565b600360009054906101000a900473ffffffffffffffffffffffffffffffffffffffff1681565b600160009054906101000a900473ffffffffffffffffffffffffffffffffffffffff1681565b6000813590506103208161053b565b92915050565b6000806040838503121561033957600080fd5b600061034785828601610311565b925050602061035885828601610311565b9150509250929050565b61036b81610477565b82525050565b61038261037d82610477565b610531565b82525050565b610391816104a1565b82525050565b6103a0816104c5565b82525050565b6103af816104e9565b82525050565b6103be8161050d565b82525050565b60006103d08285610371565b6020820191506103e08284610371565b6020820191508190509392505050565b60006020820190506104056000830184610362565b92915050565b60006020820190506104206000830184610388565b92915050565b600060208201905061043b6000830184610397565b92915050565b600060208201905061045660008301846103a6565b92915050565b600060208201905061047160008301846103b5565b92915050565b6000819050919050565b600073ffffffffffffffffffffffffffffffffffffffff82169050919050565b60006104ac826104b3565b9050919050565b60006104be82610481565b9050919050565b60006104d0826104d7565b9050919050565b60006104e282610481565b9050919050565b60006104f4826104fb565b9050919050565b600061050682610481565b9050919050565b60006105188261051f565b9050919050565b600061052a82610481565b9050919050565b6000819050919050565b61054481610477565b811461054f57600080fd5b5056fea2646970667358221220bd6fe960cc3bf50e14f8e051029fbcd789c32beb687bdef4900010bdbff0b39664736f6c63430008040033608060405234801561001057600080fd5b50336000808060001b815260200190815260200160002060000160006101000a81548173ffffffffffffffffffffffffffffffffffffffff021916908373ffffffffffffffffffffffffffffffffffffffff160217905550611219806100776000396000f3fe608060405234801561001057600080fd5b50600436106100b45760003560e01c80635b0fc9c3116100715780635b0fc9c3146101b15780635ef2c7f0146101cd578063a22cb465146101e9578063cf40882314610205578063e985e9c514610221578063f79fe53814610251576100b4565b80630178b8bf146100b957806302571be3146100e957806306ab59231461011957806314ab90381461014957806316a25cbd146101655780631896f70a14610195575b600080fd5b6100d360048036038101906100ce9190610e6c565b610281565b6040516100e091906110b5565b60405180910390f35b61010360048036038101906100fe9190610e6c565b6102c0565b60405161011091906110b5565b60405180910390f35b610133600480360381019061012e9190610f34565b610343565b60405161014091906110eb565b60405180910390f35b610163600480360381019061015e9190610ffa565b6104c6565b005b61017f600480360381019061017a9190610e6c565b610644565b60405161018c9190611106565b60405180910390f35b6101af60048036038101906101aa9190610e95565b610677565b005b6101cb60048036038101906101c69190610e95565b61080d565b005b6101e760048036038101906101e29190610f83565b610959565b005b61020360048036038101906101fe9190610e30565b61097b565b005b61021f600480360381019061021a9190610ed1565b610a78565b005b61023b60048036038101906102369190610df4565b610a93565b60405161024891906110d0565b60405180910390f35b61026b60048036038101906102669190610e6c565b610b27565b60405161027891906110d0565b60405180910390f35b600080600083815260200190815260200160002060010160009054906101000a900473ffffffffffffffffffffffffffffffffffffffff169050919050565b60008060008084815260200190815260200160002060000160009054906101000a900473ffffffffffffffffffffffffffffffffffffffff1690503073ffffffffffffffffffffffffffffffffffffffff168173ffffffffffffffffffffffffffffffffffffffff16141561033957600091505061033e565b809150505b919050565b600083600080600083815260200190815260200160002060000160009054906101000a900473ffffffffffffffffffffffffffffffffffffffff1690503373ffffffffffffffffffffffffffffffffffffffff168173ffffffffffffffffffffffffffffffffffffffff1614806104405750600160008273ffffffffffffffffffffffffffffffffffffffff1673ffffffffffffffffffffffffffffffffffffffff16815260200190815260200160002060003373ffffffffffffffffffffffffffffffffffffffff1673ffffffffffffffffffffffffffffffffffffffff16815260200190815260200160002060009054906101000a900460ff165b61044957600080fd5b6000868660405160200161045e929190611089565b6040516020818303038152906040528051906020012090506104808186610b95565b85877fce0457fe73731f824cc272376169235128c118b49d344817417c6d108d155e82876040516104b191906110b5565b60405180910390a38093505050509392505050565b81600080600083815260200190815260200160002060000160009054906101000a900473ffffffffffffffffffffffffffffffffffffffff1690503373ffffffffffffffffffffffffffffffffffffffff168173ffffffffffffffffffffffffffffffffffffffff1614806105c15750600160008273ffffffffffffffffffffffffffffffffffffffff1673ffffffffffffffffffffffffffffffffffffffff16815260200190815260200160002060003373ffffffffffffffffffffffffffffffffffffffff1673ffffffffffffffffffffffffffffffffffffffff16815260200190815260200160002060009054906101000a900460ff165b6105ca57600080fd5b837f1d4f9bbfc9cab89d66e1a1562f2233ccbf1308cb4f63de2ead5787adddb8fa68846040516105fa9190611106565b60405180910390a28260008086815260200190815260200160002060010160146101000a81548167ffffffffffffffff021916908367ffffffffffffffff16021790555050505050565b600080600083815260200190815260200160002060010160149054906101000a900467ffffffffffffffff169050919050565b81600080600083815260200190815260200160002060000160009054906101000a900473ffffffffffffffffffffffffffffffffffffffff1690503373ffffffffffffffffffffffffffffffffffffffff168173ffffffffffffffffffffffffffffffffffffffff1614806107725750600160008273ffffffffffffffffffffffffffffffffffffffff1673ffffffffffffffffffffffffffffffffffffffff16815260200190815260200160002060003373ffffffffffffffffffffffffffffffffffffffff1673ffffffffffffffffffffffffffffffffffffffff16815260200190815260200160002060009054906101000a900460ff165b61077b57600080fd5b837f335721b01866dc23fbee8b6b2c7b1e14d6f05c28cd35a2c934239f94095602a0846040516107ab91906110b5565b60405180910390a28260008086815260200190815260200160002060010160006101000a81548173ffffffffffffffffffffffffffffffffffffffff021916908373ffffffffffffffffffffffffffffffffffffffff16021790555050505050565b81600080600083815260200190815260200160002060000160009054906101000a900473ffffffffffffffffffffffffffffffffffffffff1690503373ffffffffffffffffffffffffffffffffffffffff168173ffffffffffffffffffffffffffffffffffffffff1614806109085750600160008273ffffffffffffffffffffffffffffffffffffffff1673ffffffffffffffffffffffffffffffffffffffff16815260200190815260200160002060003373ffffffffffffffffffffffffffffffffffffffff1673ffffffffffffffffffffffffffffffffffffffff16815260200190815260200160002060009054906101000a900460ff165b61091157600080fd5b61091b8484610b95565b837fd4735d920b0f87494915f556dd9b54c8f309026070caea5c737245152564d2668460405161094b91906110b5565b60405180910390a250505050565b6000610966868686610343565b9050610973818484610bed565b505050505050565b80600160003373ffffffffffffffffffffffffffffffffffffffff1673ffffffffffffffffffffffffffffffffffffffff16815260200190815260200160002060008473ffffffffffffffffffffffffffffffffffffffff1673ffffffffffffffffffffffffffffffffffffffff16815260200190815260200160002060006101000a81548160ff0219169083151502179055508173ffffffffffffffffffffffffffffffffffffffff163373ffffffffffffffffffffffffffffffffffffffff167f17307eab39ab6107e8899845ad3d59bd9653f200f220920489ca2b5937696c3183604051610a6c91906110d0565b60405180910390a35050565b610a82848461080d565b610a8d848383610bed565b50505050565b6000600160008473ffffffffffffffffffffffffffffffffffffffff1673ffffffffffffffffffffffffffffffffffffffff16815260200190815260200160002060008373ffffffffffffffffffffffffffffffffffffffff1673ffffffffffffffffffffffffffffffffffffffff16815260200190815260200160002060009054906101000a900460ff16905092915050565b60008073ffffffffffffffffffffffffffffffffffffffff1660008084815260200190815260200160002060000160009054906101000a900473ffffffffffffffffffffffffffffffffffffffff1673ffffffffffffffffffffffffffffffffffffffff1614159050919050565b8060008084815260200190815260200160002060000160006101000a81548173ffffffffffffffffffffffffffffffffffffffff021916908373ffffffffffffffffffffffffffffffffffffffff1602179055505050565b60008084815260200190815260200160002060010160009054906101000a900473ffffffffffffffffffffffffffffffffffffffff1673ffffffffffffffffffffffffffffffffffffffff168273ffffffffffffffffffffffffffffffffffffffff1614610ce2578160008085815260200190815260200160002060010160006101000a81548173ffffffffffffffffffffffffffffffffffffffff021916908373ffffffffffffffffffffffffffffffffffffffff160217905550827f335721b01866dc23fbee8b6b2c7b1e14d6f05c28cd35a2c934239f94095602a083604051610cd991906110b5565b60405180910390a25b60008084815260200190815260200160002060010160149054906101000a900467ffffffffffffffff1667ffffffffffffffff168167ffffffffffffffff1614610d9b578060008085815260200190815260200160002060010160146101000a81548167ffffffffffffffff021916908367ffffffffffffffff160217905550827f1d4f9bbfc9cab89d66e1a1562f2233ccbf1308cb4f63de2ead5787adddb8fa6882604051610d929190611106565b60405180910390a25b505050565b600081359050610daf81611187565b92915050565b600081359050610dc48161119e565b92915050565b600081359050610dd9816111b5565b92915050565b600081359050610dee816111cc565b92915050565b60008060408385031215610e0757600080fd5b6000610e1585828601610da0565b9250506020610e2685828601610da0565b9150509250929050565b60008060408385031215610e4357600080fd5b6000610e5185828601610da0565b9250506020610e6285828601610db5565b9150509250929050565b600060208284031215610e7e57600080fd5b6000610e8c84828501610dca565b91505092915050565b60008060408385031215610ea857600080fd5b6000610eb685828601610dca565b9250506020610ec785828601610da0565b9150509250929050565b60008060008060808587031215610ee757600080fd5b6000610ef587828801610dca565b9450506020610f0687828801610da0565b9350506040610f1787828801610da0565b9250506060610f2887828801610ddf565b91505092959194509250565b600080600060608486031215610f4957600080fd5b6000610f5786828701610dca565b9350506020610f6886828701610dca565b9250506040610f7986828701610da0565b9150509250925092565b600080600080600060a08688031215610f9b57600080fd5b6000610fa988828901610dca565b9550506020610fba88828901610dca565b9450506040610fcb88828901610da0565b9350506060610fdc88828901610da0565b9250506080610fed88828901610ddf565b9150509295509295909350565b6000806040838503121561100d57600080fd5b600061101b85828601610dca565b925050602061102c85828601610ddf565b9150509250929050565b61103f81611121565b82525050565b61104e81611133565b82525050565b61105d8161113f565b82525050565b61107461106f8261113f565b61117d565b82525050565b61108381611169565b82525050565b60006110958285611063565b6020820191506110a58284611063565b6020820191508190509392505050565b60006020820190506110ca6000830184611036565b92915050565b60006020820190506110e56000830184611045565b92915050565b60006020820190506111006000830184611054565b92915050565b600060208201905061111b600083018461107a565b92915050565b600061112c82611149565b9050919050565b60008115159050919050565b6000819050919050565b600073ffffffffffffffffffffffffffffffffffffffff82169050919050565b600067ffffffffffffffff82169050919050565b6000819050919050565b61119081611121565b811461119b57600080fd5b50565b6111a781611133565b81146111b257600080fd5b50565b6111be8161113f565b81146111c957600080fd5b50565b6111d581611169565b81146111e057600080fd5b5056fea264697066735822122070a17114b480cc62065957bb31b2a341f52a0c35afbb14d932d76a8d45b0d99664736f6c6343000804003360806040523480156200001157600080fd5b5060405162004357380380620043578339818101604052810190620000379190620000ef565b81600b60006101000a81548173ffffffffffffffffffffffffffffffffffffffff021916908373ffffffffffffffffffffffffffffffffffffffff16021790555080600c60006101000a81548173ffffffffffffffffffffffffffffffffffffffff021916908373ffffffffffffffffffffffffffffffffffffffff1602179055505050620001c0565b600081519050620000d2816200018c565b92915050565b600081519050620000e981620001a6565b92915050565b600080604083850312156200010357600080fd5b60006200011385828601620000c1565b92505060206200012685828601620000d8565b9150509250929050565b60006200013d826200016c565b9050919050565b6000620001518262000130565b9050919050565b6000620001658262000130565b9050919050565b600073ffffffffffffffffffffffffffffffffffffffff82169050919050565b620001978162000144565b8114620001a357600080fd5b50565b620001b18162000158565b8114620001bd57600080fd5b50565b61418780620001d06000396000f3fe608060405234801561001057600080fd5b506004361061018e5760003560e01c806377372213116100de578063bc1c58d111610097578063d5fa2b0011610071578063d5fa2b00146104ed578063e59d895d14610509578063e985e9c514610525578063f1cb7e06146105555761018e565b8063bc1c58d114610470578063c8690233146104a0578063ce3decdc146104d15761018e565b806377372213146103a05780638b95dd71146103bc578063a22cb465146103d8578063a8fa5682146103f4578063ac9650d814610424578063ad5780af146104545761018e565b8063304e6ade1161014b57806359d1d43c1161012557806359d1d43c146102f45780635c98042b14610324578063623195b014610354578063691f3431146103705761018e565b8063304e6ade146102785780633b3b57de146102945780634cbf6ba4146102c45761018e565b806301ffc9a7146101935780630af179d7146101c357806310f13a8c146101df578063124a319c146101fb5780632203ab561461022b57806329cd62ea1461025c575b600080fd5b6101ad60048036038101906101a8919061364c565b610585565b6040516101ba91906139d5565b60405180910390f35b6101dd60048036038101906101d89190613404565b6105ff565b005b6101f960048036038101906101f491906134b4565b610831565b005b61021560048036038101906102109190613379565b6108df565b6040516102229190613962565b60405180910390f35b6102456004803603810190610240919061353d565b610d3c565b604051610253929190613bc4565b60405180910390f35b610276600480360381019061027191906132db565b610e70565b005b610292600480360381019061028d9190613404565b610f02565b005b6102ae60048036038101906102a9919061323a565b610f78565b6040516102bb9190613998565b60405180910390f35b6102de60048036038101906102d9919061329f565b610fae565b6040516102eb91906139d5565b60405180910390f35b61030e6004803603810190610309919061345c565b611016565b60405161031b9190613b67565b60405180910390f35b61033e6004803603810190610339919061323a565b6110db565b60405161034b9190613a73565b60405180910390f35b61036e60048036038101906103699190613579565b611180565b005b61038a6004803603810190610385919061323a565b611216565b6040516103979190613b67565b60405180910390f35b6103ba60048036038101906103b5919061345c565b6112bb565b005b6103d660048036038101906103d191906135e5565b611331565b005b6103f260048036038101906103ed91906131b9565b611407565b005b61040e6004803603810190610409919061332a565b611573565b60405161041b9190613a73565b60405180910390f35b61043e600480360381019061043991906131f5565b611668565b60405161044b91906139b3565b60405180910390f35b61046e6004803603810190610469919061323a565b611814565b005b61048a6004803603810190610485919061323a565b611881565b6040516104979190613a73565b60405180910390f35b6104ba60048036038101906104b5919061323a565b611926565b6040516104c8929190613a0b565b60405180910390f35b6104eb60048036038101906104e69190613404565b611960565b005b61050760048036038101906105029190613263565b611a79565b005b610523600480360381019061051e91906133b5565b611aa5565b005b61053f600480360381019061053a919061317d565b611bb7565b60405161054c91906139d5565b60405180910390f35b61056f600480360381019061056a919061353d565b611c4b565b60405161057c9190613a73565b60405180910390f35b60007fac9650d8000000000000000000000000000000000000000000000000000000007bffffffffffffffffffffffffffffffffffffffffffffffffffffffff1916827bffffffffffffffffffffffffffffffffffffffffffffffffffffffff191614806105f857506105f782611d02565b5b9050919050565b8261060981611d7c565b61061257600080fd5b60008060608060008061067360008a8a8080601f016020809104026020016040519081016040528093929190818152602001838380828437600081840152601f19601f82011690508083019250505050505050611f7b90919063ffffffff16565b90505b61067f81611fa5565b6107b55760008661ffff1614156106db57806040015195506106a081611fbb565b9350836040516020016106b39190613932565b6040516020818303038152906040528051906020012091506106d481611ff2565b92506107a7565b60006106e682611fbb565b9050816040015161ffff168761ffff161415806107135750610711818661202b90919063ffffffff16565b155b156107a55761077e8b86898d8d8080601f016020809104026020016040519081016040528093929190818152602001838380828437600081840152601f19601f820116905080830192505050505050508a8b88602001516107749190613d8f565b60008b5114612052565b8160400151965081602001519550809450848051906020012092506107a282611ff2565b93505b505b6107b08161237d565b610676565b50600083511115610826576108258984878b8b8080601f016020809104026020016040519081016040528093929190818152602001838380828437600081840152601f19601f8201169050808301925050505050505088898e8e905061081b9190613d8f565b6000895114612052565b5b505050505050505050565b8461083b81611d7c565b61084457600080fd5b8282600a60008981526020019081526020016000208787604051610869929190613949565b90815260200160405180910390209190610884929190612d41565b508484604051610895929190613949565b6040518091039020867fd8c9334b1a9c2f9da342a0a2b32629c1a229b6445dad78947f674b44444a755087876040516108cf929190613b43565b60405180910390a3505050505050565b600080600760008581526020019081526020016000206000847bffffffffffffffffffffffffffffffffffffffffffffffffffffffff19167bffffffffffffffffffffffffffffffffffffffffffffffffffffffff1916815260200190815260200160002060009054906101000a900473ffffffffffffffffffffffffffffffffffffffff169050600073ffffffffffffffffffffffffffffffffffffffff168173ffffffffffffffffffffffffffffffffffffffff16146109a45780915050610d36565b60006109af85610f78565b9050600073ffffffffffffffffffffffffffffffffffffffff168173ffffffffffffffffffffffffffffffffffffffff1614156109f157600092505050610d36565b6000808273ffffffffffffffffffffffffffffffffffffffff167f01ffc9a700000000000000000000000000000000000000000000000000000000604051602401610a3c9190613a34565b6040516020818303038152906040527f01ffc9a7000000000000000000000000000000000000000000000000000000007bffffffffffffffffffffffffffffffffffffffffffffffffffffffff19166020820180517bffffffffffffffffffffffffffffffffffffffffffffffffffffffff8381831617835250505050604051610ac69190613932565b600060405180830381855afa9150503d8060008114610b01576040519150601f19603f3d011682016040523d82523d6000602084013e610b06565b606091505b5091509150811580610b19575060208151105b80610b8d5750600060f81b81601f81518110610b5e577f4e487b7100000000000000000000000000000000000000000000000000000000600052603260045260246000fd5b602001015160f81c60f81b7effffffffffffffffffffffffffffffffffffffffffffffffffffffffffffff1916145b15610b9f576000945050505050610d36565b8273ffffffffffffffffffffffffffffffffffffffff1686604051602401610bc79190613a34565b6040516020818303038152906040527f01ffc9a7000000000000000000000000000000000000000000000000000000007bffffffffffffffffffffffffffffffffffffffffffffffffffffffff19166020820180517bffffffffffffffffffffffffffffffffffffffffffffffffffffffff8381831617835250505050604051610c519190613932565b600060405180830381855afa9150503d8060008114610c8c576040519150601f19603f3d011682016040523d82523d6000602084013e610c91565b606091505b508092508193505050811580610ca8575060208151105b80610d1c5750600060f81b81601f81518110610ced577f4e487b7100000000000000000000000000000000000000000000000000000000600052603260045260246000fd5b602001015160f81c60f81b7effffffffffffffffffffffffffffffffffffffffffffffffffffffffffffff1916145b15610d2e576000945050505050610d36565b829450505050505b92915050565b60006060600080600086815260200190815260200160002090506000600190505b848111610e5057600085821614158015610d95575060008260008381526020019081526020016000208054610d9190613f03565b9050115b15610e445780826000838152602001908152602001600020808054610db990613f03565b80601f0160208091040260200160405190810160405280929190818152602001828054610de590613f03565b8015610e325780601f10610e0757610100808354040283529160200191610e32565b820191906000526020600020905b815481529060010190602001808311610e1557829003601f168201915b50505050509050935093505050610e69565b600181901b9050610d5d565b5060006040518060200160405280600081525092509250505b9250929050565b82610e7a81611d7c565b610e8357600080fd5b604051806040016040528084815260200183815250600960008681526020019081526020016000206000820151816000015560208201518160010155905050837f1d6f5e03d3f63eb58751986629a5439baee5079ff04f345becb66e23eb154e468484604051610ef4929190613a0b565b60405180910390a250505050565b82610f0c81611d7c565b610f1557600080fd5b8282600260008781526020019081526020016000209190610f37929190612dc7565b50837fe379c1624ed7e714cc0937528a32359d69d5281337765313dba4e081b72d75788484604051610f6a929190613a4f565b60405180910390a250505050565b600080610f8683603c611c4b565b9050600081511415610f9c576000915050610fa9565b610fa5816124c7565b9150505b919050565b60008060066000858152602001908152602001600020600060046000878152602001908152602001600020548152602001908152602001600020600084815260200190815260200160002060009054906101000a900461ffff1661ffff161415905092915050565b6060600a6000858152602001908152602001600020838360405161103b929190613949565b9081526020016040518091039020805461105490613f03565b80601f016020809104026020016040519081016040528092919081815260200182805461108090613f03565b80156110cd5780601f106110a2576101008083540402835291602001916110cd565b820191906000526020600020905b8154815290600101906020018083116110b057829003601f168201915b505050505090509392505050565b60606003600083815260200190815260200160002080546110fb90613f03565b80601f016020809104026020016040519081016040528092919081815260200182805461112790613f03565b80156111745780601f1061114957610100808354040283529160200191611174565b820191906000526020600020905b81548152906001019060200180831161115757829003601f168201915b50505050509050919050565b8361118a81611d7c565b61119357600080fd5b6000846001866111a39190613d8f565b16146111ae57600080fd5b8282600080888152602001908152602001600020600087815260200190815260200160002091906111e0929190612dc7565b5083857faa121bbeef5f32f5961a2a28966e769023910fc9479059ee3495d4c1a696efe360405160405180910390a35050505050565b606060086000838152602001908152602001600020805461123690613f03565b80601f016020809104026020016040519081016040528092919081815260200182805461126290613f03565b80156112af5780601f10611284576101008083540402835291602001916112af565b820191906000526020600020905b81548152906001019060200180831161129257829003601f168201915b50505050509050919050565b826112c581611d7c565b6112ce57600080fd5b82826008600087815260200190815260200160002091906112f0929190612d41565b50837fb7d29e911041e8d9b843369e890bcb72c9388692ba48b65ac54e7214c4c348f78484604051611323929190613b43565b60405180910390a250505050565b8261133b81611d7c565b61134457600080fd5b837f65412581168e88a1e60c6459d7f44ae83ad0832e670826c05a4e2476b57af7528484604051611376929190613bc4565b60405180910390a2603c8314156113c857837f52d7d861f09ab3d26239d492e8968629f95e9e318cf0b73bfddc441522a15fd26113b2846124c7565b6040516113bf919061397d565b60405180910390a25b816001600086815260200190815260200160002060008581526020019081526020016000209080519060200190611400929190612e4d565b5050505050565b8173ffffffffffffffffffffffffffffffffffffffff163373ffffffffffffffffffffffffffffffffffffffff161415611476576040517f08c379a000000000000000000000000000000000000000000000000000000000815260040161146d90613b89565b60405180910390fd5b80600d60003373ffffffffffffffffffffffffffffffffffffffff1673ffffffffffffffffffffffffffffffffffffffff16815260200190815260200160002060008473ffffffffffffffffffffffffffffffffffffffff1673ffffffffffffffffffffffffffffffffffffffff16815260200190815260200160002060006101000a81548160ff0219169083151502179055508173ffffffffffffffffffffffffffffffffffffffff163373ffffffffffffffffffffffffffffffffffffffff167f17307eab39ab6107e8899845ad3d59bd9653f200f220920489ca2b5937696c318360405161156791906139d5565b60405180910390a35050565b606060056000858152602001908152602001600020600060046000878152602001908152602001600020548152602001908152602001600020600084815260200190815260200160002060008361ffff1661ffff16815260200190815260200160002080546115e190613f03565b80601f016020809104026020016040519081016040528092919081815260200182805461160d90613f03565b801561165a5780601f1061162f5761010080835404028352916020019161165a565b820191906000526020600020905b81548152906001019060200180831161163d57829003601f168201915b505050505090509392505050565b60608282905067ffffffffffffffff8111156116ad577f4e487b7100000000000000000000000000000000000000000000000000000000600052604160045260246000fd5b6040519080825280602002602001820160405280156116e057816020015b60608152602001906001900390816116cb5790505b50905060005b8383905081101561180d576000803073ffffffffffffffffffffffffffffffffffffffff16868685818110611744577f4e487b7100000000000000000000000000000000000000000000000000000000600052603260045260246000fd5b90506020028101906117569190613bf4565b604051611764929190613919565b600060405180830381855af49150503d806000811461179f576040519150601f19603f3d011682016040523d82523d6000602084013e6117a4565b606091505b5091509150816117b357600080fd5b808484815181106117ed577f4e487b7100000000000000000000000000000000000000000000000000000000600052603260045260246000fd5b60200260200101819052505050808061180590613f91565b9150506116e6565b5092915050565b8061181e81611d7c565b61182757600080fd5b60046000838152602001908152602001600020600081548092919061184b90613f91565b9190505550817fb757169b8492ca2f1c6619d9d76ce22803035c3b1d5f6930dffe7b127c1a198360405160405180910390a25050565b60606002600083815260200190815260200160002080546118a190613f03565b80601f01602080910402602001604051908101604052809291908181526020018280546118cd90613f03565b801561191a5780601f106118ef5761010080835404028352916020019161191a565b820191906000526020600020905b8154815290600101906020018083116118fd57829003601f168201915b50505050509050919050565b6000806009600084815260200190815260200160002060000154600960008581526020019081526020016000206001015491509150915091565b8261196a81611d7c565b61197357600080fd5b600060036000868152602001908152602001600020805461199390613f03565b80601f01602080910402602001604051908101604052809291908181526020018280546119bf90613f03565b8015611a0c5780601f106119e157610100808354040283529160200191611a0c565b820191906000526020600020905b8154815290600101906020018083116119ef57829003601f168201915b505050505090508383600360008881526020019081526020016000209190611a35929190612dc7565b50847f8f15ed4b723ef428f250961da8315675b507046737e19319fc1a4d81bfe87f85828686604051611a6a93929190613a95565b60405180910390a25050505050565b81611a8381611d7c565b611a8c57600080fd5b611aa083603c611a9b856124ea565b611331565b505050565b82611aaf81611d7c565b611ab857600080fd5b81600760008681526020019081526020016000206000857bffffffffffffffffffffffffffffffffffffffffffffffffffffffff19167bffffffffffffffffffffffffffffffffffffffffffffffffffffffff1916815260200190815260200160002060006101000a81548173ffffffffffffffffffffffffffffffffffffffff021916908373ffffffffffffffffffffffffffffffffffffffff160217905550827bffffffffffffffffffffffffffffffffffffffffffffffffffffffff1916847f7c69f06bea0bdef565b709e93a147836b0063ba2dd89f02d0b7e8d931e6a6daa84604051611ba99190613962565b60405180910390a350505050565b6000600d60008473ffffffffffffffffffffffffffffffffffffffff1673ffffffffffffffffffffffffffffffffffffffff16815260200190815260200160002060008373ffffffffffffffffffffffffffffffffffffffff1673ffffffffffffffffffffffffffffffffffffffff16815260200190815260200160002060009054906101000a900460ff16905092915050565b60606001600084815260200190815260200160002060008381526020019081526020016000208054611c7c90613f03565b80601f0160208091040260200160405190810160405280929190818152602001828054611ca890613f03565b8015611cf55780601f10611cca57610100808354040283529160200191611cf5565b820191906000526020600020905b815481529060010190602001808311611cd857829003601f168201915b5050505050905092915050565b60007f59d1d43c000000000000000000000000000000000000000000000000000000007bffffffffffffffffffffffffffffffffffffffffffffffffffffffff1916827bffffffffffffffffffffffffffffffffffffffffffffffffffffffff19161480611d755750611d7482612574565b5b9050919050565b600080600b60009054906101000a900473ffffffffffffffffffffffffffffffffffffffff1673ffffffffffffffffffffffffffffffffffffffff166302571be3846040518263ffffffff1660e01b8152600401611dda91906139f0565b60206040518083038186803b158015611df257600080fd5b505afa158015611e06573d6000803e3d6000fd5b505050506040513d601f19601f82011682018060405250810190611e2a9190613154565b9050600c60009054906101000a900473ffffffffffffffffffffffffffffffffffffffff1673ffffffffffffffffffffffffffffffffffffffff168173ffffffffffffffffffffffffffffffffffffffff161415611f3357600c60009054906101000a900473ffffffffffffffffffffffffffffffffffffffff1673ffffffffffffffffffffffffffffffffffffffff16636352211e8460001c6040518263ffffffff1660e01b8152600401611ee09190613ba9565b60206040518083038186803b158015611ef857600080fd5b505afa158015611f0c573d6000803e3d6000fd5b505050506040513d601f19601f82011682018060405250810190611f309190613154565b90505b3373ffffffffffffffffffffffffffffffffffffffff168173ffffffffffffffffffffffffffffffffffffffff161480611f735750611f728133611bb7565b5b915050919050565b611f83612ed3565b828160000181905250818160c0018181525050611f9f8161237d565b92915050565b6000816000015151826020015110159050919050565b6060611feb8260200151611fd7846000015185602001516125ee565b84600001516126919092919063ffffffff16565b9050919050565b60606120248260a001518360a001518460c001516120109190613d8f565b84600001516126919092919063ffffffff16565b9050919050565b60008151835114801561204a5750612049836000846000875161274c565b5b905092915050565b600060046000898152602001908152602001600020549050600087805190602001209050600061208d8686896126919092919063ffffffff16565b905083156121ff576000600560008c81526020019081526020016000206000858152602001908152602001600020600084815260200190815260200160002060008a61ffff1661ffff16815260200190815260200160002080546120f090613f03565b90501461216657600660008b815260200190815260200160002060008481526020019081526020016000206000838152602001908152602001600020600081819054906101000a900461ffff168092919061214a90613ed9565b91906101000a81548161ffff021916908361ffff160217905550505b600560008b81526020019081526020016000206000848152602001908152602001600020600083815260200190815260200160002060008961ffff1661ffff16815260200190815260200160002060006121c09190612f1e565b897f03528ed0c2a3ebc993b12ce3c16bb382f9c7d88ef7d8a1bf290eaf35955a12078a8a6040516121f2929190613ace565b60405180910390a2612371565b6000600560008c81526020019081526020016000206000858152602001908152602001600020600084815260200190815260200160002060008a61ffff1661ffff168152602001908152602001600020805461225a90613f03565b905014156122d157600660008b815260200190815260200160002060008481526020019081526020016000206000838152602001908152602001600020600081819054906101000a900461ffff16809291906122b590613f66565b91906101000a81548161ffff021916908361ffff160217905550505b80600560008c81526020019081526020016000206000858152602001908152602001600020600084815260200190815260200160002060008a61ffff1661ffff1681526020019081526020016000209080519060200190612333929190612e4d565b50897f52a608b3303a48862d07a73d82fa221318c0027fbbcfb1b2329bface3f19ff2b8a8a8460405161236893929190613afe565b60405180910390a25b50505050505050505050565b8060c001518160200181815250508060000151518160200151106123a0576124c4565b60006123b4826000015183602001516125ee565b82602001516123c39190613d39565b90506123dc81836000015161277090919063ffffffff16565b826040019061ffff16908161ffff16815250506002816123fc9190613d39565b905061241581836000015161277090919063ffffffff16565b826060019061ffff16908161ffff16815250506002816124359190613d39565b905061244e81836000015161279f90919063ffffffff16565b826080019063ffffffff16908163ffffffff16815250506004816124729190613d39565b9050600061248d82846000015161277090919063ffffffff16565b61ffff1690506002826124a09190613d39565b9150818360a001818152505080826124b89190613d39565b8360c001818152505050505b50565b600060148251146124d757600080fd5b600c6101000a6020830151049050919050565b6060601467ffffffffffffffff81111561252d577f4e487b7100000000000000000000000000000000000000000000000000000000600052604160045260246000fd5b6040519080825280601f01601f19166020018201604052801561255f5781602001600182028036833780820191505090505b509050600c6101000a82026020820152919050565b60007fc8690233000000000000000000000000000000000000000000000000000000007bffffffffffffffffffffffffffffffffffffffffffffffffffffffff1916827bffffffffffffffffffffffffffffffffffffffffffffffffffffffff191614806125e757506125e6826127d0565b5b9050919050565b6000808290505b60011561267c5783518110612633577f4e487b7100000000000000000000000000000000000000000000000000000000600052600160045260246000fd5b6000612648828661284a90919063ffffffff16565b60ff16905060018161265a9190613d39565b826126659190613d39565b91506000811415612676575061267c565b506125f5565b82816126889190613d8f565b91505092915050565b6060835182846126a19190613d39565b11156126ac57600080fd5b60008267ffffffffffffffff8111156126ee577f4e487b7100000000000000000000000000000000000000000000000000000000600052604160045260246000fd5b6040519080825280601f01601f1916602001820160405280156127205781602001600182028036833780820191505090505b509050600080602083019150856020880101905061273f82828761289b565b8293505050509392505050565b60006127598484846128ff565b6127648787856128ff565b14905095945050505050565b600082516002836127819190613d39565b111561278c57600080fd5b61ffff8260028501015116905092915050565b600082516004836127b09190613d39565b11156127bb57600080fd5b63ffffffff8260048501015116905092915050565b60007f691f3431000000000000000000000000000000000000000000000000000000007bffffffffffffffffffffffffffffffffffffffffffffffffffffffff1916827bffffffffffffffffffffffffffffffffffffffffffffffffffffffff1916148061284357506128428261292b565b5b9050919050565b6000828281518110612885577f4e487b7100000000000000000000000000000000000000000000000000000000600052603260045260246000fd5b602001015160f81c60f81b60f81c905092915050565b5b602081106128da57815183526020836128b59190613d39565b92506020826128c49190613d39565b91506020816128d39190613d8f565b905061289c565b60006001826020036101000a0390508019835116818551168181178652505050505050565b60008351828461290f9190613d39565b111561291a57600080fd5b818360208601012090509392505050565b60007f124a319c000000000000000000000000000000000000000000000000000000007bffffffffffffffffffffffffffffffffffffffffffffffffffffffff1916827bffffffffffffffffffffffffffffffffffffffffffffffffffffffff1916148061299e575061299d826129a5565b5b9050919050565b60007fa8fa5682000000000000000000000000000000000000000000000000000000007bffffffffffffffffffffffffffffffffffffffffffffffffffffffff1916827bffffffffffffffffffffffffffffffffffffffffffffffffffffffff19161480612a7057507f5c98042b000000000000000000000000000000000000000000000000000000007bffffffffffffffffffffffffffffffffffffffffffffffffffffffff1916827bffffffffffffffffffffffffffffffffffffffffffffffffffffffff1916145b80612a805750612a7f82612a87565b5b9050919050565b60007fbc1c58d1000000000000000000000000000000000000000000000000000000007bffffffffffffffffffffffffffffffffffffffffffffffffffffffff1916827bffffffffffffffffffffffffffffffffffffffffffffffffffffffff19161480612afa5750612af982612b01565b5b9050919050565b60007f3b3b57de000000000000000000000000000000000000000000000000000000007bffffffffffffffffffffffffffffffffffffffffffffffffffffffff1916827bffffffffffffffffffffffffffffffffffffffffffffffffffffffff19161480612bcc57507ff1cb7e06000000000000000000000000000000000000000000000000000000007bffffffffffffffffffffffffffffffffffffffffffffffffffffffff1916827bffffffffffffffffffffffffffffffffffffffffffffffffffffffff1916145b80612bdc5750612bdb82612be3565b5b9050919050565b60007f2203ab56000000000000000000000000000000000000000000000000000000007bffffffffffffffffffffffffffffffffffffffffffffffffffffffff1916827bffffffffffffffffffffffffffffffffffffffffffffffffffffffff19161480612c565750612c5582612c5d565b5b9050919050565b60007fac9650d8000000000000000000000000000000000000000000000000000000007bffffffffffffffffffffffffffffffffffffffffffffffffffffffff1916827bffffffffffffffffffffffffffffffffffffffffffffffffffffffff19161480612cd05750612ccf82612cd7565b5b9050919050565b60007f01ffc9a7000000000000000000000000000000000000000000000000000000007bffffffffffffffffffffffffffffffffffffffffffffffffffffffff1916827bffffffffffffffffffffffffffffffffffffffffffffffffffffffff1916149050919050565b828054612d4d90613f03565b90600052602060002090601f016020900481019282612d6f5760008555612db6565b82601f10612d8857803560ff1916838001178555612db6565b82800160010185558215612db6579182015b82811115612db5578235825591602001919060010190612d9a565b5b509050612dc39190612f5e565b5090565b828054612dd390613f03565b90600052602060002090601f016020900481019282612df55760008555612e3c565b82601f10612e0e57803560ff1916838001178555612e3c565b82800160010185558215612e3c579182015b82811115612e3b578235825591602001919060010190612e20565b5b509050612e499190612f5e565b5090565b828054612e5990613f03565b90600052602060002090601f016020900481019282612e7b5760008555612ec2565b82601f10612e9457805160ff1916838001178555612ec2565b82800160010185558215612ec2579182015b82811115612ec1578251825591602001919060010190612ea6565b5b509050612ecf9190612f5e565b5090565b6040518060e001604052806060815260200160008152602001600061ffff168152602001600061ffff168152602001600063ffffffff16815260200160008152602001600081525090565b508054612f2a90613f03565b6000825580601f10612f3c5750612f5b565b601f016020900490600052602060002090810190612f5a9190612f5e565b5b50565b5b80821115612f77576000816000905550600101612f5f565b5090565b6000612f8e612f8984613c70565b613c4b565b905082815260208101848484011115612fa657600080fd5b612fb1848285613e97565b509392505050565b600081359050612fc8816140c7565b92915050565b600081519050612fdd816140c7565b92915050565b60008083601f840112612ff557600080fd5b8235905067ffffffffffffffff81111561300e57600080fd5b60208301915083602082028301111561302657600080fd5b9250929050565b60008135905061303c816140de565b92915050565b600081359050613051816140f5565b92915050565b6000813590506130668161410c565b92915050565b60008083601f84011261307e57600080fd5b8235905067ffffffffffffffff81111561309757600080fd5b6020830191508360018202830111156130af57600080fd5b9250929050565b600082601f8301126130c757600080fd5b81356130d7848260208601612f7b565b91505092915050565b60008083601f8401126130f257600080fd5b8235905067ffffffffffffffff81111561310b57600080fd5b60208301915083600182028301111561312357600080fd5b9250929050565b60008135905061313981614123565b92915050565b60008135905061314e8161413a565b92915050565b60006020828403121561316657600080fd5b600061317484828501612fce565b91505092915050565b6000806040838503121561319057600080fd5b600061319e85828601612fb9565b92505060206131af85828601612fb9565b9150509250929050565b600080604083850312156131cc57600080fd5b60006131da85828601612fb9565b92505060206131eb8582860161302d565b9150509250929050565b6000806020838503121561320857600080fd5b600083013567ffffffffffffffff81111561322257600080fd5b61322e85828601612fe3565b92509250509250929050565b60006020828403121561324c57600080fd5b600061325a84828501613042565b91505092915050565b6000806040838503121561327657600080fd5b600061328485828601613042565b925050602061329585828601612fb9565b9150509250929050565b600080604083850312156132b257600080fd5b60006132c085828601613042565b92505060206132d185828601613042565b9150509250929050565b6000806000606084860312156132f057600080fd5b60006132fe86828701613042565b935050602061330f86828701613042565b925050604061332086828701613042565b9150509250925092565b60008060006060848603121561333f57600080fd5b600061334d86828701613042565b935050602061335e86828701613042565b925050604061336f8682870161312a565b9150509250925092565b6000806040838503121561338c57600080fd5b600061339a85828601613042565b92505060206133ab85828601613057565b9150509250929050565b6000806000606084860312156133ca57600080fd5b60006133d886828701613042565b93505060206133e986828701613057565b92505060406133fa86828701612fb9565b9150509250925092565b60008060006040848603121561341957600080fd5b600061342786828701613042565b935050602084013567ffffffffffffffff81111561344457600080fd5b6134508682870161306c565b92509250509250925092565b60008060006040848603121561347157600080fd5b600061347f86828701613042565b935050602084013567ffffffffffffffff81111561349c57600080fd5b6134a8868287016130e0565b92509250509250925092565b6000806000806000606086880312156134cc57600080fd5b60006134da88828901613042565b955050602086013567ffffffffffffffff8111156134f757600080fd5b613503888289016130e0565b9450945050604086013567ffffffffffffffff81111561352257600080fd5b61352e888289016130e0565b92509250509295509295909350565b6000806040838503121561355057600080fd5b600061355e85828601613042565b925050602061356f8582860161313f565b9150509250929050565b6000806000806060858703121561358f57600080fd5b600061359d87828801613042565b94505060206135ae8782880161313f565b935050604085013567ffffffffffffffff8111156135cb57600080fd5b6135d78782880161306c565b925092505092959194509250565b6000806000606084860312156135fa57600080fd5b600061360886828701613042565b93505060206136198682870161313f565b925050604084013567ffffffffffffffff81111561363657600080fd5b613642868287016130b6565b9150509250925092565b60006020828403121561365e57600080fd5b600061366c84828501613057565b91505092915050565b600061368183836137aa565b905092915050565b61369281613e61565b82525050565b6136a181613dd5565b82525050565b6136b081613dc3565b82525050565b60006136c182613cb1565b6136cb8185613cdf565b9350836020820285016136dd85613ca1565b8060005b8581101561371957848403895281516136fa8582613675565b945061370583613cd2565b925060208a019950506001810190506136e1565b50829750879550505050505092915050565b61373481613de7565b82525050565b61374381613df3565b82525050565b61375281613dfd565b82525050565b60006137648385613d01565b9350613771838584613e97565b61377a83614067565b840190509392505050565b60006137918385613d12565b935061379e838584613e97565b82840190509392505050565b60006137b582613cbc565b6137bf8185613cf0565b93506137cf818560208601613ea6565b6137d881614067565b840191505092915050565b60006137ee82613cbc565b6137f88185613d01565b9350613808818560208601613ea6565b61381181614067565b840191505092915050565b600061382782613cbc565b6138318185613d12565b9350613841818560208601613ea6565b80840191505092915050565b60006138598385613d1d565b9350613866838584613e97565b61386f83614067565b840190509392505050565b60006138868385613d2e565b9350613893838584613e97565b82840190509392505050565b60006138aa82613cc7565b6138b48185613d1d565b93506138c4818560208601613ea6565b6138cd81614067565b840191505092915050565b60006138e5602983613d1d565b91506138f082614078565b604082019050919050565b61390481613e29565b82525050565b61391381613e57565b82525050565b6000613926828486613785565b91508190509392505050565b600061393e828461381c565b915081905092915050565b600061395682848661387a565b91508190509392505050565b600060208201905061397760008301846136a7565b92915050565b60006020820190506139926000830184613689565b92915050565b60006020820190506139ad6000830184613698565b92915050565b600060208201905081810360008301526139cd81846136b6565b905092915050565b60006020820190506139ea600083018461372b565b92915050565b6000602082019050613a05600083018461373a565b92915050565b6000604082019050613a20600083018561373a565b613a2d602083018461373a565b9392505050565b6000602082019050613a496000830184613749565b92915050565b60006020820190508181036000830152613a6a818486613758565b90509392505050565b60006020820190508181036000830152613a8d81846137e3565b905092915050565b60006040820190508181036000830152613aaf81866137e3565b90508181036020830152613ac4818486613758565b9050949350505050565b60006040820190508181036000830152613ae881856137e3565b9050613af760208301846138fb565b9392505050565b60006060820190508181036000830152613b1881866137e3565b9050613b2760208301856138fb565b8181036040830152613b3981846137e3565b9050949350505050565b60006020820190508181036000830152613b5e81848661384d565b90509392505050565b60006020820190508181036000830152613b81818461389f565b905092915050565b60006020820190508181036000830152613ba2816138d8565b9050919050565b6000602082019050613bbe600083018461390a565b92915050565b6000604082019050613bd9600083018561390a565b8181036020830152613beb81846137e3565b90509392505050565b60008083356001602003843603038112613c0d57600080fd5b80840192508235915067ffffffffffffffff821115613c2b57600080fd5b602083019250600182023603831315613c4357600080fd5b509250929050565b6000613c55613c66565b9050613c618282613f35565b919050565b6000604051905090565b600067ffffffffffffffff821115613c8b57613c8a614038565b5b613c9482614067565b9050602081019050919050565b6000819050602082019050919050565b600081519050919050565b600081519050919050565b600081519050919050565b6000602082019050919050565b600082825260208201905092915050565b600082825260208201905092915050565b600082825260208201905092915050565b600081905092915050565b600082825260208201905092915050565b600081905092915050565b6000613d4482613e57565b9150613d4f83613e57565b9250827fffffffffffffffffffffffffffffffffffffffffffffffffffffffffffffffff03821115613d8457613d83613fda565b5b828201905092915050565b6000613d9a82613e57565b9150613da583613e57565b925082821015613db857613db7613fda565b5b828203905092915050565b6000613dce82613e37565b9050919050565b6000613de082613e37565b9050919050565b60008115159050919050565b6000819050919050565b60007fffffffff0000000000000000000000000000000000000000000000000000000082169050919050565b600061ffff82169050919050565b600073ffffffffffffffffffffffffffffffffffffffff82169050919050565b6000819050919050565b6000613e6c82613e73565b9050919050565b6000613e7e82613e85565b9050919050565b6000613e9082613e37565b9050919050565b82818337600083830152505050565b60005b83811015613ec4578082015181840152602081019050613ea9565b83811115613ed3576000848401525b50505050565b6000613ee482613e29565b91506000821415613ef857613ef7613fda565b5b600182039050919050565b60006002820490506001821680613f1b57607f821691505b60208210811415613f2f57613f2e614009565b5b50919050565b613f3e82614067565b810181811067ffffffffffffffff82111715613f5d57613f5c614038565b5b80604052505050565b6000613f7182613e29565b915061ffff821415613f8657613f85613fda565b5b600182019050919050565b6000613f9c82613e57565b91507fffffffffffffffffffffffffffffffffffffffffffffffffffffffffffffffff821415613fcf57613fce613fda565b5b600182019050919050565b7f4e487b7100000000000000000000000000000000000000000000000000000000600052601160045260246000fd5b7f4e487b7100000000000000000000000000000000000000000000000000000000600052602260045260246000fd5b7f4e487b7100000000000000000000000000000000000000000000000000000000600052604160045260246000fd5b6000601f19601f8301169050919050565b7f455243313135353a2073657474696e6720617070726f76616c2073746174757360008201527f20666f722073656c660000000000000000000000000000000000000000000000602082015250565b6140d081613dc3565b81146140db57600080fd5b50565b6140e781613de7565b81146140f257600080fd5b50565b6140fe81613df3565b811461410957600080fd5b50565b61411581613dfd565b811461412057600080fd5b50565b61412c81613e29565b811461413757600080fd5b50565b61414381613e57565b811461414e57600080fd5b5056fea2646970667358221220dc29e9b29a25ef3881c332269877cfcb6e6ff98c607a8f064d76bbeccd5b635864736f6c63430008040033608060405234801561001057600080fd5b506040516105fc3803806105fc833981810160405281019061003291906100aa565b816000806101000a81548173ffffffffffffffffffffffffffffffffffffffff021916908373ffffffffffffffffffffffffffffffffffffffff160217905550806001819055505050610162565b60008151905061008f81610134565b92915050565b6000815190506100a48161014b565b92915050565b600080604083850312156100bd57600080fd5b60006100cb85828601610095565b92505060206100dc85828601610080565b9150509250929050565b60006100f182610114565b9050919050565b6000819050919050565b600061010d826100e6565b9050919050565b600073ffffffffffffffffffffffffffffffffffffffff82169050919050565b61013d816100f8565b811461014857600080fd5b50565b61015481610102565b811461015f57600080fd5b50565b61048b806101716000396000f3fe608060405234801561001057600080fd5b506004361061002b5760003560e01c8063d22057a914610030575b600080fd5b61004a600480360381019061004591906102f2565b61004c565b005b8160008060009054906101000a900473ffffffffffffffffffffffffffffffffffffffff1673ffffffffffffffffffffffffffffffffffffffff166302571be3600154846040516020016100a1929190610363565b604051602081830303815290604052805190602001206040518263ffffffff1660e01b81526004016100d3919061038f565b60206040518083038186803b1580156100eb57600080fd5b505afa1580156100ff573d6000803e3d6000fd5b505050506040513d601f19601f8201168201806040525081019061012391906102a0565b9050600073ffffffffffffffffffffffffffffffffffffffff168173ffffffffffffffffffffffffffffffffffffffff16148061018b57503373ffffffffffffffffffffffffffffffffffffffff168173ffffffffffffffffffffffffffffffffffffffff16145b61019457600080fd5b60008054906101000a900473ffffffffffffffffffffffffffffffffffffffff1673ffffffffffffffffffffffffffffffffffffffff166306ab592360015486866040518463ffffffff1660e01b81526004016101f3939291906103aa565b602060405180830381600087803b15801561020d57600080fd5b505af1158015610221573d6000803e3d6000fd5b505050506040513d601f19601f8201168201806040525081019061024591906102c9565b5050505050565b60008135905061025b81610427565b92915050565b60008151905061027081610427565b92915050565b6000813590506102858161043e565b92915050565b60008151905061029a8161043e565b92915050565b6000602082840312156102b257600080fd5b60006102c084828501610261565b91505092915050565b6000602082840312156102db57600080fd5b60006102e98482850161028b565b91505092915050565b6000806040838503121561030557600080fd5b600061031385828601610276565b92505060206103248582860161024c565b9150509250929050565b610337816103e1565b82525050565b610346816103f3565b82525050565b61035d610358826103f3565b61041d565b82525050565b600061036f828561034c565b60208201915061037f828461034c565b6020820191508190509392505050565b60006020820190506103a4600083018461033d565b92915050565b60006060820190506103bf600083018661033d565b6103cc602083018561033d565b6103d9604083018461032e565b949350505050565b60006103ec826103fd565b9050919050565b6000819050919050565b600073ffffffffffffffffffffffffffffffffffffffff82169050919050565b6000819050919050565b610430816103e1565b811461043b57600080fd5b50565b610447816103f3565b811461045257600080fd5b5056fea26469706673582212207eb5cba425dc3483275e4674b165c205b00e8e89a99eb83a1628921cc4766e5164736f6c6343000804003360806040523480156200001157600080fd5b506040516200216338038062002163833981810160405281019062000037919062000402565b620000576200004b6200028260201b60201c565b6200028a60201b60201c565b81600260006101000a81548173ffffffffffffffffffffffffffffffffffffffff021916908373ffffffffffffffffffffffffffffffffffffffff16021790555080600360006101000a81548173ffffffffffffffffffffffffffffffffffffffff021916908373ffffffffffffffffffffffffffffffffffffffff1602179055506000600260009054906101000a900473ffffffffffffffffffffffffffffffffffffffff1673ffffffffffffffffffffffffffffffffffffffff166302571be37f91d1777781884d03a6757a803996e38de2a42967fb37eeaca72729271025a9e260001b6040518263ffffffff1660e01b81526004016200015b919062000482565b60206040518083038186803b1580156200017457600080fd5b505afa15801562000189573d6000803e3d6000fd5b505050506040513d601f19601f82011682018060405250810190620001af9190620003aa565b9050600073ffffffffffffffffffffffffffffffffffffffff168173ffffffffffffffffffffffffffffffffffffffff161462000279578073ffffffffffffffffffffffffffffffffffffffff16631e83409a336040518263ffffffff1660e01b815260040162000221919062000465565b602060405180830381600087803b1580156200023c57600080fd5b505af115801562000251573d6000803e3d6000fd5b505050506040513d601f19601f82011682018060405250810190620002779190620003d6565b505b5050506200056d565b600033905090565b60008060009054906101000a900473ffffffffffffffffffffffffffffffffffffffff169050816000806101000a81548173ffffffffffffffffffffffffffffffffffffffff021916908373ffffffffffffffffffffffffffffffffffffffff1602179055508173ffffffffffffffffffffffffffffffffffffffff168173ffffffffffffffffffffffffffffffffffffffff167f8be0079c531659141344cd1fd0a4f28419497f9722a3daafe3b4186f6b6457e060405160405180910390a35050565b6000815190506200035f8162000505565b92915050565b60008151905062000376816200051f565b92915050565b6000815190506200038d8162000539565b92915050565b600081519050620003a48162000553565b92915050565b600060208284031215620003bd57600080fd5b6000620003cd848285016200034e565b91505092915050565b600060208284031215620003e957600080fd5b6000620003f98482850162000365565b91505092915050565b600080604083850312156200041657600080fd5b600062000426858286016200037c565b9250506020620004398582860162000393565b9150509250929050565b6200044e816200049f565b82525050565b6200045f81620004b3565b82525050565b60006020820190506200047c600083018462000443565b92915050565b600060208201905062000499600083018462000454565b92915050565b6000620004ac82620004e5565b9050919050565b6000819050919050565b6000620004ca826200049f565b9050919050565b6000620004de826200049f565b9050919050565b600073ffffffffffffffffffffffffffffffffffffffff82169050919050565b62000510816200049f565b81146200051c57600080fd5b50565b6200052a81620004b3565b81146200053657600080fd5b50565b6200054481620004bd565b81146200055057600080fd5b50565b6200055e81620004d1565b81146200056a57600080fd5b50565b611be6806200057d6000396000f3fe608060405234801561001057600080fd5b50600436106100ea5760003560e01c80638d9522b81161008c578063c47f002711610066578063c47f002714610273578063da8c229e146102a3578063e0dba60f146102d3578063f2fde38b146102ef576100ea565b80638d9522b8146101f55780638da5cb5b14610225578063bffbe61c14610243576100ea565b80633f15457f116100c85780633f15457f1461017f5780634709bf4b1461019d578063715018a6146101cd578063828eab0e146101d7576100ea565b80630ccc4a7f146100ef5780630f5a54661461011f5780631e83409a1461014f575b600080fd5b6101096004803603810190610104919061140b565b61030b565b604051610116919061172e565b60405180910390f35b610139600480360381019061013491906113cf565b6104a9565b604051610146919061172e565b60405180910390f35b6101696004803603810190610164919061137d565b6104be565b604051610176919061172e565b60405180910390f35b6101876104d3565b6040516101949190611803565b60405180910390f35b6101b760048036038101906101b291906113cf565b6104f9565b6040516101c4919061172e565b60405180910390f35b6101d5610697565b005b6101df61071f565b6040516101ec919061181e565b60405180910390f35b61020f600480360381019061020a919061145a565b610745565b60405161021c919061172e565b60405180910390f35b61022d610a77565b60405161023a91906116cf565b60405180910390f35b61025d6004803603810190610258919061137d565b610aa0565b60405161026a919061172e565b60405180910390f35b61028d6004803603810190610288919061154f565b610afd565b60405161029a919061172e565b60405180910390f35b6102bd60048036038101906102b8919061137d565b610bc7565b6040516102ca9190611713565b60405180910390f35b6102ed60048036038101906102e891906114c1565b610be7565b005b6103096004803603810190610304919061137d565b610d0c565b005b6000833373ffffffffffffffffffffffffffffffffffffffff168173ffffffffffffffffffffffffffffffffffffffff1614806103915750600160003373ffffffffffffffffffffffffffffffffffffffff1673ffffffffffffffffffffffffffffffffffffffff16815260200190815260200160002060009054906101000a900460ff165b806104455750600260009054906101000a900473ffffffffffffffffffffffffffffffffffffffff1673ffffffffffffffffffffffffffffffffffffffff1663e985e9c582336040518363ffffffff1660e01b81526004016103f49291906116ea565b60206040518083038186803b15801561040c57600080fd5b505afa158015610420573d6000803e3d6000fd5b505050506040513d601f19601f8201168201806040525081019061044491906114fd565b5b80610455575061045481610e04565b5b610494576040517f08c379a000000000000000000000000000000000000000000000000000000000815260040161048b90611879565b60405180910390fd5b61049f858585610ec2565b9150509392505050565b60006104b6338484610ec2565b905092915050565b60006104cc33836000610ec2565b9050919050565b600260009054906101000a900473ffffffffffffffffffffffffffffffffffffffff1681565b6000823373ffffffffffffffffffffffffffffffffffffffff168173ffffffffffffffffffffffffffffffffffffffff16148061057f5750600160003373ffffffffffffffffffffffffffffffffffffffff1673ffffffffffffffffffffffffffffffffffffffff16815260200190815260200160002060009054906101000a900460ff165b806106335750600260009054906101000a900473ffffffffffffffffffffffffffffffffffffffff1673ffffffffffffffffffffffffffffffffffffffff1663e985e9c582336040518363ffffffff1660e01b81526004016105e29291906116ea565b60206040518083038186803b1580156105fa57600080fd5b505afa15801561060e573d6000803e3d6000fd5b505050506040513d601f19601f8201168201806040525081019061063291906114fd565b5b80610643575061064281610e04565b5b610682576040517f08c379a000000000000000000000000000000000000000000000000000000000815260040161067990611879565b60405180910390fd5b61068e84846000610ec2565b91505092915050565b61069f611158565b73ffffffffffffffffffffffffffffffffffffffff166106bd610a77565b73ffffffffffffffffffffffffffffffffffffffff1614610713576040517f08c379a000000000000000000000000000000000000000000000000000000000815260040161070a90611859565b60405180910390fd5b61071d6000611160565b565b600360009054906101000a900473ffffffffffffffffffffffffffffffffffffffff1681565b6000833373ffffffffffffffffffffffffffffffffffffffff168173ffffffffffffffffffffffffffffffffffffffff1614806107cb5750600160003373ffffffffffffffffffffffffffffffffffffffff1673ffffffffffffffffffffffffffffffffffffffff16815260200190815260200160002060009054906101000a900460ff165b8061087f5750600260009054906101000a900473ffffffffffffffffffffffffffffffffffffffff1673ffffffffffffffffffffffffffffffffffffffff1663e985e9c582336040518363ffffffff1660e01b815260040161082e9291906116ea565b60206040518083038186803b15801561084657600080fd5b505afa15801561085a573d6000803e3d6000fd5b505050506040513d601f19601f8201168201806040525081019061087e91906114fd565b5b8061088f575061088e81610e04565b5b6108ce576040517f08c379a00000000000000000000000000000000000000000000000000000000081526004016108c590611879565b60405180910390fd5b60006108fd8630600360009054906101000a900473ffffffffffffffffffffffffffffffffffffffff16610ec2565b9050600360009054906101000a900473ffffffffffffffffffffffffffffffffffffffff1673ffffffffffffffffffffffffffffffffffffffff16637737221382866040518363ffffffff1660e01b815260040161095c9291906117d3565b600060405180830381600087803b15801561097657600080fd5b505af115801561098a573d6000803e3d6000fd5b50505050600260009054906101000a900473ffffffffffffffffffffffffffffffffffffffff1673ffffffffffffffffffffffffffffffffffffffff166306ab59237f91d1777781884d03a6757a803996e38de2a42967fb37eeaca72729271025a9e260001b6109f989611224565b886040518463ffffffff1660e01b8152600401610a1893929190611749565b602060405180830381600087803b158015610a3257600080fd5b505af1158015610a46573d6000803e3d6000fd5b505050506040513d601f19601f82011682018060405250810190610a6a9190611526565b5080925050509392505050565b60008060009054906101000a900473ffffffffffffffffffffffffffffffffffffffff16905090565b60007f91d1777781884d03a6757a803996e38de2a42967fb37eeaca72729271025a9e260001b610acf83611224565b604051602001610ae09291906116a3565b604051602081830303815290604052805190602001209050919050565b600080610b2d3330600360009054906101000a900473ffffffffffffffffffffffffffffffffffffffff16610ec2565b9050600360009054906101000a900473ffffffffffffffffffffffffffffffffffffffff1673ffffffffffffffffffffffffffffffffffffffff16637737221382856040518363ffffffff1660e01b8152600401610b8c9291906117d3565b600060405180830381600087803b158015610ba657600080fd5b505af1158015610bba573d6000803e3d6000fd5b5050505080915050919050565b60016020528060005260406000206000915054906101000a900460ff1681565b610bef611158565b73ffffffffffffffffffffffffffffffffffffffff16610c0d610a77565b73ffffffffffffffffffffffffffffffffffffffff1614610c63576040517f08c379a0000000000000000000000000000000000000000000000000000000008152600401610c5a90611859565b60405180910390fd5b80600160008473ffffffffffffffffffffffffffffffffffffffff1673ffffffffffffffffffffffffffffffffffffffff16815260200190815260200160002060006101000a81548160ff0219169083151502179055508173ffffffffffffffffffffffffffffffffffffffff167f4c97694570a07277810af7e5669ffd5f6a2d6b74b6e9a274b8b870fd5114cf8782604051610d009190611713565b60405180910390a25050565b610d14611158565b73ffffffffffffffffffffffffffffffffffffffff16610d32610a77565b73ffffffffffffffffffffffffffffffffffffffff1614610d88576040517f08c379a0000000000000000000000000000000000000000000000000000000008152600401610d7f90611859565b60405180910390fd5b600073ffffffffffffffffffffffffffffffffffffffff168173ffffffffffffffffffffffffffffffffffffffff161415610df8576040517f08c379a0000000000000000000000000000000000000000000000000000000008152600401610def90611839565b60405180910390fd5b610e0181611160565b50565b60008173ffffffffffffffffffffffffffffffffffffffff16638da5cb5b6040518163ffffffff1660e01b815260040160206040518083038186803b158015610e4c57600080fd5b505afa925050508015610e7d57506040513d601f19601f82011682018060405250810190610e7a91906113a6565b60015b610e8a5760009050610ebd565b3373ffffffffffffffffffffffffffffffffffffffff168173ffffffffffffffffffffffffffffffffffffffff16149150505b919050565b600080610ece85611224565b905060007f91d1777781884d03a6757a803996e38de2a42967fb37eeaca72729271025a9e260001b82604051602001610f089291906116a3565b6040516020818303038152906040528051906020012090506000600260009054906101000a900473ffffffffffffffffffffffffffffffffffffffff1673ffffffffffffffffffffffffffffffffffffffff16630178b8bf836040518263ffffffff1660e01b8152600401610f7d919061172e565b60206040518083038186803b158015610f9557600080fd5b505afa158015610fa9573d6000803e3d6000fd5b505050506040513d601f19601f82011682018060405250810190610fcd91906113a6565b905060008073ffffffffffffffffffffffffffffffffffffffff168673ffffffffffffffffffffffffffffffffffffffff161415801561103957508173ffffffffffffffffffffffffffffffffffffffff168673ffffffffffffffffffffffffffffffffffffffff1614155b9050600081611048578261104a565b865b9050600260009054906101000a900473ffffffffffffffffffffffffffffffffffffffff1673ffffffffffffffffffffffffffffffffffffffff16635ef2c7f07f91d1777781884d03a6757a803996e38de2a42967fb37eeaca72729271025a9e260001b878b8560006040518663ffffffff1660e01b81526004016110d3959493929190611780565b600060405180830381600087803b1580156110ed57600080fd5b505af1158015611101573d6000803e3d6000fd5b50505050838973ffffffffffffffffffffffffffffffffffffffff167f6ada868dd3058cf77a48a74489fd7963688e5464b2b0fa957ace976243270e9260405160405180910390a383955050505050509392505050565b600033905090565b60008060009054906101000a900473ffffffffffffffffffffffffffffffffffffffff169050816000806101000a81548173ffffffffffffffffffffffffffffffffffffffff021916908373ffffffffffffffffffffffffffffffffffffffff1602179055508173ffffffffffffffffffffffffffffffffffffffff168173ffffffffffffffffffffffffffffffffffffffff167f8be0079c531659141344cd1fd0a4f28419497f9722a3daafe3b4186f6b6457e060405160405180910390a35050565b600060285b600081111561129f576001810390507f3031323334353637383961626364656600000000000000000000000000000000600f84161a81536010830492506001810390507f3031323334353637383961626364656600000000000000000000000000000000600f84161a8153601083049250611229565b5060286000209050919050565b60006112bf6112ba846118be565b611899565b9050828152602081018484840111156112d757600080fd5b6112e28482856119c1565b509392505050565b6000813590506112f981611b6b565b92915050565b60008151905061130e81611b6b565b92915050565b60008135905061132381611b82565b92915050565b60008151905061133881611b82565b92915050565b60008151905061134d81611b99565b92915050565b600082601f83011261136457600080fd5b81356113748482602086016112ac565b91505092915050565b60006020828403121561138f57600080fd5b600061139d848285016112ea565b91505092915050565b6000602082840312156113b857600080fd5b60006113c6848285016112ff565b91505092915050565b600080604083850312156113e257600080fd5b60006113f0858286016112ea565b9250506020611401858286016112ea565b9150509250929050565b60008060006060848603121561142057600080fd5b600061142e868287016112ea565b935050602061143f868287016112ea565b9250506040611450868287016112ea565b9150509250925092565b60008060006060848603121561146f57600080fd5b600061147d868287016112ea565b935050602061148e868287016112ea565b925050604084013567ffffffffffffffff8111156114ab57600080fd5b6114b786828701611353565b9150509250925092565b600080604083850312156114d457600080fd5b60006114e2858286016112ea565b92505060206114f385828601611314565b9150509250929050565b60006020828403121561150f57600080fd5b600061151d84828501611329565b91505092915050565b60006020828403121561153857600080fd5b60006115468482850161133e565b91505092915050565b60006020828403121561156157600080fd5b600082013567ffffffffffffffff81111561157b57600080fd5b61158784828501611353565b91505092915050565b6115998161190b565b82525050565b6115a88161191d565b82525050565b6115b781611929565b82525050565b6115ce6115c982611929565b611a34565b82525050565b6115dd81611967565b82525050565b6115ec8161198b565b82525050565b6115fb816119af565b82525050565b600061160c826118ef565b61161681856118fa565b93506116268185602086016119d0565b61162f81611a6d565b840191505092915050565b60006116476026836118fa565b915061165282611a7e565b604082019050919050565b600061166a6020836118fa565b915061167582611acd565b602082019050919050565b600061168d6049836118fa565b915061169882611af6565b606082019050919050565b60006116af82856115bd565b6020820191506116bf82846115bd565b6020820191508190509392505050565b60006020820190506116e46000830184611590565b92915050565b60006040820190506116ff6000830185611590565b61170c6020830184611590565b9392505050565b6000602082019050611728600083018461159f565b92915050565b600060208201905061174360008301846115ae565b92915050565b600060608201905061175e60008301866115ae565b61176b60208301856115ae565b6117786040830184611590565b949350505050565b600060a08201905061179560008301886115ae565b6117a260208301876115ae565b6117af6040830186611590565b6117bc6060830185611590565b6117c960808301846115f2565b9695505050505050565b60006040820190506117e860008301856115ae565b81810360208301526117fa8184611601565b90509392505050565b600060208201905061181860008301846115d4565b92915050565b600060208201905061183360008301846115e3565b92915050565b600060208201905081810360008301526118528161163a565b9050919050565b600060208201905081810360008301526118728161165d565b9050919050565b6000602082019050818103600083015261189281611680565b9050919050565b60006118a36118b4565b90506118af8282611a03565b919050565b6000604051905090565b600067ffffffffffffffff8211156118d9576118d8611a3e565b5b6118e282611a6d565b9050602081019050919050565b600081519050919050565b600082825260208201905092915050565b600061191682611933565b9050919050565b60008115159050919050565b6000819050919050565b600073ffffffffffffffffffffffffffffffffffffffff82169050919050565b600067ffffffffffffffff82169050919050565b600061197282611979565b9050919050565b600061198482611933565b9050919050565b60006119968261199d565b9050919050565b60006119a882611933565b9050919050565b60006119ba82611953565b9050919050565b82818337600083830152505050565b60005b838110156119ee5780820151818401526020810190506119d3565b838111156119fd576000848401525b50505050565b611a0c82611a6d565b810181811067ffffffffffffffff82111715611a2b57611a2a611a3e565b5b80604052505050565b6000819050919050565b7f4e487b7100000000000000000000000000000000000000000000000000000000600052604160045260246000fd5b6000601f19601f8301169050919050565b7f4f776e61626c653a206e6577206f776e657220697320746865207a65726f206160008201527f6464726573730000000000000000000000000000000000000000000000000000602082015250565b7f4f776e61626c653a2063616c6c6572206973206e6f7420746865206f776e6572600082015250565b7f43616c6c6572206973206e6f74206120636f6e74726f6c6c6572206f7220617560008201527f74686f72697365642062792061646472657373206f722074686520616464726560208201527f737320697473656c660000000000000000000000000000000000000000000000604082015250565b611b748161190b565b8114611b7f57600080fd5b50565b611b8b8161191d565b8114611b9657600080fd5b50565b611ba281611929565b8114611bad57600080fd5b5056fea2646970667358221220b50bc97222154b5873e4f33ec39cc9101e9328b97143d487e888f9dfe9e3b5f564736f6c63430008040033",
  "linkReferences": {},
  "deployedLinkReferences": {}
}